:100000000C942A000C9447000C9447000C94470071
:100010000C9447000C9447000C9447000C94470044
:100020000C9447000C9447000C9447000C94470034
:100030000C9447000C9447000C9447000C94470024
:100040000C9447000C9447000C9447000C94470014
:100050000C94470011241FBECFE5D8E0DEBFCDBF12
:1000600010E0A0E6B0E0E4E5F2E002C005900D92F9
:10007000A837B107D9F720E0A8E7B0E001C01D928A
:10008000A937B207E1F70E941D010C9428010C94D6
:10009000000084B3807F84BB84B3806F84BB8FEF08
:1000A00085BB089560E070E03EC08FEF85BB25B34F
:1000B00081E090E0FB01E059FF4F008002C0880F13
:1000C000991F0A94E2F78095822385BB20E030E0F7
:1000D00025C083B3F901EC58FF4F4081E42F90E035
:1000E00002C0959587954A95E2F780FD15C083B3C8
:1000F00090E00E2E02C0959587950A94E2F780FF56
:10010000F6CF660F771F660F771F605A7F4FFB0190
:10011000E20FF31F808108952F5F3F4F2430310598
:10012000C4F26F5F7F4F643071050CF4BECF81E283
:10013000089588B3846088BB2FE788E391E021505D
:1001400080409040E1F700C0000088B38B7F88BBFF
:100150000895CF93C82F8BB3807F9C2F92959F706B
:10016000892B8BBB88B38C7F88BB0E9499008BB393
:10017000807FCF70C82BCBBB88B38C7F88BB0E949D
:100180009900CF9108958FE39CE90197F1F700C0A2
:10019000000087B3876087BB88B3887F88BB8FEFF9
:1001A0008ABB8FE295E70197F1F700C0000082E07B
:1001B00090E00E94A90088E290E00E94A90086E0F9
:1001C00090E00E94A90080E890E00E94A9008FE0E2
:1001D00090E00E94A9000895811105C080E8860F73
:1001E0000E94A900089580EC860F0E94A90008953E
:1001F000CF93C82F80917800803121F460E081E0B6
:100200000E94EC00809178008F5F809378008BB320
:10021000807F9C2F92959F70892B8BBB88B3887FA2
:10022000816088BB0E9499008BB3807FCF70C82B00
:10023000CBBB0E949900CF9108950E9449000E9473
:10024000C3000E9452008132E1F30E94F800F9CF0E
:04025000F894FFCF50
:100254003738392F3435362A3132332D72303D2B2D
:08026400040506070001020376
:00000001FF
