S01200004C63645F4B65797061642E7372656342
S11300000C942A000C9447000C9447000C9447006D
S11300100C9447000C9447000C9447000C94470040
S11300200C9447000C9447000C9447000C94470030
S11300300C9447000C9447000C9447000C94470020
S11300400C9447000C9447000C9447000C94470010
S11300500C94470011241FBECFE5D8E0DEBFCDBF0E
S113006010E0A0E6B0E0E8E4F2E002C005900D92F2
S1130070AC37B107D9F720E0ACE7B0E001C01D927E
S1130080AE37B207E1F70E940C010C9422010C94E4
S1130090000088B3886088BB2FE788E391E0215093
S11300A080409040E1F700C0000088B3877F88BBA0
S11300B00895CF93C82F8BB38F709C2F907F892B7B
S11300C08BBB88B3897F88BB0E9449002BB330E186
S11300D0C39FC0011124922F9F70892B8BBB88B3BF
S11300E0897F88BB0E944900CF9108958FE39CE9E2
S11300F00197F1F700C0000087B38E6087BB88B317
S1130100817F88BB80EF8ABB8FE295E70197F1F787
S113011000C0000082E090E00E94590088E290E074
S11301200E94590086E090E00E94590080E890E027
S11301300E9459008FE090E00E94590008958111B7
S113014005C080E8860F0E945900089580EC860F50
S11301500E9459000895CF93C82F80917D0080316B
S113016021F460E081E00E949F0080917C00811175
S113017005C080917D008F5F80937D008BB38F706D
S11301809C2F907F892B8BBB88B3887F826088BB30
S11301900E9449002BB330E1C39FC0011124922F68
S11301A09F70892B8BBB0E944900CF910895CF93F8
S11301B0DF93EC0103C00E94AB002196888181117A
S11301C0FACFDF91CF910895CF93DF9384E00E941B
S11301D0590081E080937C00C0917D00D0E021969D
S11301E00BC0C031D10521F46FE080E00E949F0074
S11301F080E20E94AB0021971C161D0694F380E850
S11302000E94590086E00E94590010927C001092CE
S11302107D00DF91CF9108950E94760080E690E002
S11302200E94D7002FEF89E698E12150804090404A
S1130230E1F700C000000E94E4008FE690E00E9415
S10B0240D700FFCFF894FFCFB3
S11302484C4541524E20494E2044455054480041A3
S10F02584244454C205241484D414E00A8
S9030000FC
