S012000073656374696F6E4156522E7372656334
S11300000C942A000C9434000C9434000C943400A6
S11300100C9434000C9434000C9434000C9434008C
S11300200C9434000C9434000C9434000C9434007C
S11300300C9434000C9434000C9434000C9434006C
S11300400C9434000C9434000C9434000C9434005C
S11300500C94340011241FBECFE5D8E0DEBFCDBF21
S11300600E9436000C946C000C9400008CEF84BB4E
S113007040E050E02DC0CA0182959295907F982768
S1130080807F9827886085BB2FEF30E762E021509E
S113009030406040E1F700C0000080E090E013C011
S11300A09C0122953295307F3227207F32272460AD
S11300B025BB2FEF30E762E0215030406040E1F78C
S11300C000C0000001968A30910554F34F5F5F4FE2
S10F00D04A30510584F2CCCFF894FFCFE5
S9030000FC
