:100000000C942A000C9447000C9447000C94470071
:100010000C9447000C9447000C9447000C94470044
:100020000C9447000C9447000C9447000C94470034
:100030000C9447000C94F6010C9447000C949B011F
:100040000C9447000C9447000C9447000C94470014
:100050000C94470011241FBECFE5D8E0DEBFCDBF12
:1000600010E0A0E6B0E0E2E7F4E002C005900D92F7
:10007000A037B107D9F720E0A0E7B0E001C01D929A
:10008000A038B207E1F70E94DF000C9437020C940D
:10009000000088B3886088BB2FE788E391E0215097
:1000A00080409040E1F700C0000088B3877F88BBA4
:1000B0000895CF93C82F8BB38F709C2F907F892B7F
:1000C0008BBB88B3897F88BB0E9449002BB330E18A
:1000D000C39FC0011124922F9F70892B8BBB88B3C3
:1000E000897F88BB0E944900CF9108958FE39CE9E6
:1000F0000197F1F700C0000087B38E6087BB88B31B
:10010000817F88BB80EF8ABB8FE295E70197F1F78B
:1001100000C0000082E00E94590088E20E9459005D
:1001200086E00E94590080E80E9459008FE00E94FA
:1001300059000895811105C080E8860F0E9459007A
:10014000089580EC860F0E9459000895CF93C82F20
:1001500080917100803121F460E081E00E949A007A
:1001600080917000811105C0809171008F5F809334
:1001700071008BB38F709C2F907F892B8BBB88B3C2
:10018000887F826088BB0E9449002BB330E1C39F07
:10019000C0011124922F9F70892B8BBB0E944900B4
:1001A000CF910895CF93DF93EC0103C00E94A60086
:1001B000219688818111FACFDF91CF910895CF9355
:1001C000DF93CDB7DEB7C657D1090FB6F894DEBFBF
:1001D0000FBECDBF78940E94760083E0898393E3BD
:1001E0009A838D831B821C828E83CE0101960E948E
:1001F00021018CE0E4E6F0E0DE01179601900D921B
:100200008A95E1F74CE050E060E070E0CE0107969F
:100210000E946F01CE01439624E6FC0111922A95BB
:10022000E9F70E948601FFEF23E284EFF1502040BE
:100230008040E1F700C00000CE0143960E94D2004A
:10024000F2CFFC0190937F0080937E0080B58068A0
:1002500080BD20B59081892F90E0880F991F822B57
:1002600080BD8081833019F48BB182608BB98BB1F2
:100270008D7F8BB9818189B980B5806880BD20B5BB
:10028000928130E1939FC0011124822B80BD80B503
:10029000806880BD20B59381892F90E0880F991FD9
:1002A000880F991F880F991F822B80BD2AB19481D6
:1002B000892F90E0880F991F880F991F880F991F29
:1002C000822B8AB92AB1E0917E00F0917F0095815E
:1002D00030E4939FC0011124822B8AB90895E091E4
:1002E0007E00F0917F002581222379F090937D009C
:1002F00080937C00409378005093790060937A005B
:1003000070937B00FC0180818CB908959C01E09181
:100310007E00F0917F009581992361F03093770002
:100320002093760010927200109273001092740065
:100330001092750008951F920F920FB60F9211241C
:100340002F933F934F935F936F937F938F939F93DD
:10035000AF93BF93EF93FF93809160009091610002
:10036000A0916200B09163004091780050917900B3
:1003700060917A0070917B0084179507A607B707F4
:10038000C0F420917C0030917D00AC01BD014F5F35
:100390005F4F6F4F7F4F40936000509361006093B9
:1003A000620070936300F901E80FF91F80818CB936
:1003B0000CC081E090E0A0E0B0E0809360009093FA
:1003C0006100A0936200B0936300FF91EF91BF9131
:1003D000AF919F918F917F916F915F914F913F91DD
:1003E0002F910F900FBE0F901F9018951F920F9294
:1003F0000FB60F9211242F933F934F935F936F93F8
:100400007F938F939F93AF93BF93EF93FF9320912D
:100410007600309177008091720090917300A091E6
:100420007400B0917500AC01BD014F5F5F4F6F4F1D
:100430007F4F4093720050937300609374007093E9
:100440007500F901E80FF91F2CB12083FF91EF919E
:10045000BF91AF919F918F917F916F915F914F91DC
:100460003F912F910F900FBE0F901F901895F89409
:02047000FFCFBC
:100472000100000068656C6C6F20776F726C64001D
:00000001FF
