S019000061746D6567615F7370695F6D61737465722E7372656306
S11300000C942A000C9447000C9447000C9447006D
S11300100C9447000C9447000C9447000C94470040
S11300200C9447000C9447000C9447000C94470030
S11300300C9447000C94BF000C9447000C9464008B
S11300400C9447000C9447000C9447000C94470010
S11300500C94470011241FBECFE5D8E0DEBFCDBF0E
S113006010E0A0E6B0E0E4E0F2E002C005900D92FA
S1130070A436B107D9F720E0A4E6B0E001C01D9290
S1130080A037B207E1F70E9449000C9400010C94D8
S113009000000E945B0080E0C1E0C80F0E94600085
S11300A02FE986E891E0215080409040E1F700C0BC
S11300B000008C2FF1CF80EA87BB81E58DB90895CC
S11300C08FB9779BFECF08951F920F920FB60F92B0
S11300D011242F933F934F935F936F937F938F9349
S11300E09F93AF93BF93EF93FF93809160009091A0
S11300F06100A0916200B091630040916A00509148
S11301006B0060916C0070916D0084179507A607D1
S1130110B707C0F420916E0030916F00AC01BD01AF
S11301204F5F5F4F6F4F7F4F40936000509361006C
S11301306093620070936300F901E80FF91F8081F6
S11301408CB90CC081E090E0A0E0B0E08093600046
S113015090936100A0936200B0936300FF91EF91CC
S1130160BF91AF919F918F917F916F915F914F91CB
S11301703F912F910F900FBE0F901F9018951F92D3
S11301800F920FB60F9211242F933F934F935F93C7
S11301906F937F938F939F93AF93BF93EF93FF934B
S11301A0209168003091690080916400909165000D
S11301B0A0916600B0916700AC01BD014F5F5F4F35
S11301C06F4F7F4F409364005093650060936600C7
S11301D070936700F901E80FF91F2CB12083FF9198
S11301E0EF91BF91AF919F918F917F916F915F91AB
S11301F04F913F912F910F900FBE0F901F90189524
S1070200F894FFCF9C
S107020401000000F1
S9030000FC
