S010000074696D657250574D2E73726563FF
S11300000C942A000C9434000C9434000C943400A6
S11300100C9434000C9434000C9434000C9434008C
S11300200C9434000C9434000C9434000C9434007C
S11300300C9434000C9434000C9434000C9434006C
S11300400C9434000C9434000C9434000C9434005C
S11300500C94340011241FBECFE5D8E0DEBFCDBF21
S11300600E9458000C9491000C940000FC018FEF46
S113007087BB8081882319F0813041F00DC083B79C
S1130080806483BF83B7886083BF06C083B78064FE
S113009083BF83B7877F83BF83B7806383BF838135
S11300A08CBF93B78181892B83BF08958CBF08953A
S11300B0CF93DF9300D000D0CDB7DEB783E08A833F
S11300C019828B831C822FE38DE093E021508040C2
S11300D09040E1F700C00000CE0101960E94360076
S11300E00FEF10E00BC0802F0E94560083EC99E0C4
S11300F00197F1F700C000000150110911239CF78A
S11301000FEF10E00BC0802F0E94560083EC99E0A3
S11301100197F1F700C000000150110911239CF769
S1090120DFCFF894FFCFCD
S9030000FC
