:100000000C942A000C9447000C9447000C94470071
:100010000C9447000C9447000C9447000C94470044
:100020000C9447000C9447000C9447000C94470034
:100030000C9447000C9447000C9447000C94470024
:100040000C9447000C9447000C9447000C94470014
:100050000C94470011241FBECFE5D8E0DEBFCDBF12
:1000600010E0A0E6B0E0E2EBF8E002C005900D92EF
:10007000A037B107D9F720E0A0E7B0E001C01D929A
:10008000A237B207E1F70E943B010C9457040C948D
:10009000000027B130E4839FC0011124822B87B96F
:1000A00086B1682B66B986B1806886B9089597B124
:1000B000907E97B997B1892B87B986B1806486B94C
:1000C0003699FECF84B195B1089588B3886088BB16
:1000D0002FE788E391E0215080409040E1F700C095
:1000E000000088B3877F88BB0895CF93C82F85B35E
:1000F0008F709C2F907F892B85BB88B3897F88BBAD
:100100000E94650025B330E1C39FC0011124922FE6
:100110009F70892B85BB88B3897F88BB0E9465004F
:10012000CF9108958FE39CE90197F1F700C000009B
:1001300087B38E6087BB88B3817F88BB80EF84BB29
:100140008FE295E70197F1F700C0000082E00E947E
:10015000750088E20E94750086E00E94750080E8C4
:100160000E9475008FE00E9475000895811105C0FE
:1001700080E8860F0E947500089580EC860F0E942B
:1001800075000895CF93C82F80917100803121F4BC
:1001900060E081E00E94B60080917000811105C08E
:1001A000809171008F5F8093710085B38F709C2F59
:1001B000907F892B85BB88B3887F826088BB0E9433
:1001C000650025B330E1C39FC0011124922F9F70B9
:1001D000892B85BB0E946500CF910895CF93DF9353
:1001E000EC0103C00E94C200219688818111FACFE0
:1001F000DF91CF9108950F931F93CF93DF93CDB7E6
:10020000DEB728970FB6F894DEBF0FBECDBF9F9321
:100210008F9380E690E09F938F931F9288E08F9357
:100220008E010F5F1F4F1F930F930E945F01C80144
:100230000E94EE000FB6F894DEBF0FBECDBF289629
:100240000FB6F894DEBF0FBECDBFDF91CF911F91E7
:100250000F91089580E00E94570024EF31E0AC0137
:10026000429FC001439F900D529F900D1124892FF2
:100270008695869508950E94920062E081E00E9432
:10028000490083E690E00E94EE000E942A01D82FE8
:1002900060E081E00E94B6008D2F90E00E94FB009C
:1002A0000E942A01C82FD817D9F360E081E00E948C
:1002B000B6008C2F90E00E94FB00DC2FF1CFAEE067
:1002C000B0E0E5E6F1E00C942E040D891E898F89DB
:1002D000988D26E02C831A83098397FF02C080E063
:1002E00090E801979E838D83AE01455E5F4F698DD7
:1002F0007A8DCE0101960E948F014D815E8157FD5E
:100300000AC02F813885421753070CF49A01F8016F
:10031000E20FF31F10822E96E4E00C944A04ABE047
:10032000B0E0E5E9F1E00C9420046C017B018A0166
:10033000FC0117821682838181FFCCC1CE01019618
:100340003C01F6019381F70193FD859193FF819123
:100350007F01882309F4BAC1853239F493FD859170
:1003600093FF81917F01853229F4B60190E00E94CC
:100370008603E7CF912C212C312CFFE1F315D8F027
:100380008B3279F038F4803279F08332A1F4232D66
:1003900020611DC08D3261F0803369F4232D21600E
:1003A00016C0832D8260382EE32DE4603E2E2AC0D5
:1003B000F32DF8601DC037FC2DC020ED280F2A302A
:1003C00040F08E32B9F436FC81C1232D2064322EE8
:1003D00019C036FE06C08AE0989E200D1124922E88
:1003E00011C0EAE02E9E200D1124222EF32DF06282
:1003F0003F2E08C08C3621F4832D8068382E02C031
:10040000883641F4F70193FD859193FF81917F0137
:100410008111B3CF982F9F7D9554933028F40C5FB2
:100420001F4F9FE399830DC0833631F0833771F0FE
:10043000833509F059C021C0F801808189830E5F9E
:100440001F4F88248394912C530113C02801F2E09C
:100450004F0E511CF801A080B18036FE03C0692DFB
:1004600070E002C06FEF7FEFC5010E947B034C017B
:100470008201F32DFF773F2E16C0280122E0420EA5
:10048000511CF801A080B18036FE03C0692D70E0D8
:1004900002C06FEF7FEFC5010E9470034C01F32D86
:1004A000F0683F2E820133FC1BC0822D90E088163D
:1004B0009906B0F4B60180E290E00E9486032A9487
:1004C000F4CFF50137FC859137FE81915F01B601CC
:1004D00090E00E94860321102A9421E0821A91085C
:1004E0008114910471F7E8C0843611F0893641F522
:1004F000F80137FE07C060817181828193810C5FB2
:100500001F4F08C060817181072E000C880B990B6A
:100510000E5F1F4FF32DFF763F2E97FF09C090957A
:100520008095709561957F4F8F4F9F4FF0683F2E5C
:100530002AE030E0A3010E94C203882E861845C03D
:10054000853731F4232D2F7EB22E2AE030E025C0EE
:10055000932D997FB92E8F36C1F018F4883579F034
:10056000B5C0803719F0883721F0B0C0E92FE061BD
:10057000BE2EB4FE0DC0FB2DF460BF2E09C034FEAC
:100580000AC0292F2660B22E06C028E030E005C040
:1005900020E130E002C020E132E0F801B7FE07C000
:1005A00060817181828193810C5F1F4F06C06081E1
:1005B000718180E090E00E5F1F4FA3010E94C20393
:1005C000882E8618FB2DFF773F2E36FE0DC0232D7B
:1005D0002E7FA22E891458F434FE0BC032FC09C0C1
:1005E000832D8E7EA82E05C0B82CA32C03C0B82C5A
:1005F00001C0B92CA4FE0FC0FE01E80DF11D8081E1
:10060000803321F49A2D997EA92E09C0A2FE06C03E
:10061000B394B39404C08A2D867809F0B394A3FCF4
:1006200011C0A0FE06C0B21488F4280C922C9B18AE
:100630000EC0B21460F4B60180E290E00E9486031E
:10064000B394F7CFB21418F42B1802C0982C212CB5
:10065000A4FE10C0B60180E390E00E948603A2FED3
:1006600017C0A1FC03C088E790E002C088E590E0D5
:10067000B6010CC08A2D867859F0A1FE02C08BE22B
:1006800001C080E2A7FC8DE2B60190E00E948603E3
:10069000891438F4B60180E390E00E9486039A94AE
:1006A000F7CF8A94F301E80DF11D8081B60190E047
:1006B0000E9486038110F5CF222009F442CEB601B4
:1006C00080E290E00E9486032A94F6CFF6018681AC
:1006D000978102C08FEF9FEF2B96E2E10C943C04D0
:1006E000FC010590615070400110D8F780959095FD
:1006F0008E0F9F1F0895FC01615070400190011002
:10070000D8F7809590958E0F9F1F08950F931F9394
:10071000CF93DF93FB01238121FD03C08FEF9FEF78
:100720002CC022FF16C04681578124813581421793
:10073000530744F4A081B1819D012F5F3F4F318366
:1007400020838C93268137812F5F3F4F3783268309
:1007500014C08B01EC01FB010084F185E02D0995AB
:10076000892BE1F6D80116968D919C9117970196E9
:1007700017969C938E931697CE01DF91CF911F9180
:100780000F910895FA01AA27283051F1203181F103
:10079000E8946F936E7F6E5F7F4F8F4F9F4FAF4F89
:1007A000B1E03ED0B4E03CD0670F781F891F9A1F9C
:1007B000A11D680F791F8A1F911DA11D6A0F711D50
:1007C000811D911DA11D20D009F468943F912AE05C
:1007D000269F11243019305D3193DEF6CF01089544
:1007E000462F4770405D4193B3E00FD0C9F7F6CF75
:1007F000462F4F70405D4A3318F0495D31FD40523D
:10080000419302D0A9F7EACFB4E0A69597958795D2
:1008100077956795BA95C9F70097610571050895B1
:100820009B01AC010A2E069457954795379527955D
:10083000BA95C9F7620F731F841F951FA01D0895F5
:100840002F923F924F925F926F927F928F929F92E0
:10085000AF92BF92CF92DF92EF92FF920F931F93CE
:10086000CF93DF93CDB7DEB7CA1BDB0B0FB6F8947F
:10087000DEBF0FBECDBF09942A88398848885F84BF
:100880006E847D848C849B84AA84B984C884DF8030
:10089000EE80FD800C811B81AA81B981CE0FD11D14
:1008A0000FB6F894DEBF0FBECDBFED010895F894EA
:0208B000FFCF78
:1008B20025640054656D70657261747572653A00E5
:00000001FF
